:020000040000fa
:08000000ffff032009000000ce
:020000040000fa
:10000800134a14498a420cd20139891a21f0030192
:10001800114b0431194453f8040b42f8040b8b427a
:10002800f9d10e4b0e4a93420ad2013ad21a22f063
:10003800030204321a44002143f8041b9342fbd103
:10004800084b094a23f07f03936000f011b800bf02
:1000580010000020d405002080000000d4050020f6
:10006800fc4500200800002000ed00e00000000032
:080078005ff800f0c50500204f
:020000040000fa
:10008000bff34f8f0549064bca6802f4e062134381
:10009000cb60bff34f8f00bffde700bf00ed00e076
:1000a0000400fa0570b51f4c257805b170bd00f04d
:1000b00073fa0028fad000f077fac6b200f096fa88
:1000c00098b9627863688ab1a268934204d21648ec
:1000d000591c1e5461600b469a420ed10023012226
:1000e000c4e901336370227007e0657062680e49ed
:1000f000531c092b5654636003d0bde8704000f0d8
:1001000067ba0a4b0a689a4205d0512000f03afac1
:1001100000236360f1e7d1e90132a3600123227378
:100120006370f5e7d4050020f42500204d434850c6
:100130004ff400531b685a1c09d0094a517b01290e
:1001400006d083f3088842f204031b6818477047ff
:1001500083f30888034b1b681847002353737047c9
:10016000d4050020040008004ff400531b6801333d
:100170000ed04ff00053074a1968914201d0002079
:1001800070475868044bc01ab0fa80f040097047b5
:10019000012070477fa5a57f805a5a802de98048ad
:1001a000624e634fdff89481dff8949183b0fff7dc
:1001b00079ffb47b84b33569284600f091f901e0fa
:1001c000fff770ff00f084f90028f9d1284600f00d
:1001d0006df901e0fff766ff00f07af90028f9d128
:1001e000544b2c46a3eb050a05f5005521460aebb6
:1001f000040000f03df901e0fff754ff00f068f95a
:100200000028f9d104f50074a542efd1b073fff7cf
:1002100049ffb47b002cced13378002bc7d0337b81
:10022000a02b0dd0a12b1ed0a22b3ad0a42b5bd09b
:10023000a32b68d0522000f0a5f900233370b6e755
:10024000d7e9002302ea080203ea090313449a42a9
:1002500002d2b3f5801f41d900235120c6e90533ee
:1002600000f090f9e9e73b68726903ea08039342fa
:10027000336112d3b26993420fd22d4b2e4a03f54c
:10028000005053f8041f42f8041f8342f9d10123a0
:100290005020b37300f076f9cfe7512000f072f9e7
:1002a000cbe7d6e905a30121a3eb0a052120d7f866
:1002b00000b0019400f026f901ab29464ff0ff325f
:1002c000504600f099f80221212000f01bf9019b13
:1002d0009b4521d1532000f055f9aee75020c6e9e7
:1002e000052300f04ff9a8e7502000f04bf900f08b
:1002f00041f90028fbd04ff000530022c3e900224f
:1003000000f0f6f899e7502000f03cf900f032f9df
:100310000028fbd0fff7b4fe542000f033f94ff073
:100320000053c3e90044fff7abfe00bfd405002033
:10033000f4250020f4050020f005002000e0ffff78
:1003400000feffff704700bf244a254b25490020cf
:1003500010741a4699625368db06fcd44223204984
:10036000c2f88430d1f884305806fbd51e4b0022e9
:1003700077219a631a465963d36b5907fcd4022339
:10038000194982f83030cb6b9b07fcd4164a136caa
:1003900003f00303032bfad1144a01235371d378da
:1003a000d807fcd50e4a124b136253685907fcd488
:1003b000104b0b4953624b681a07fcd44123084a7f
:1003c000c1f89c30d2f89c305b06fbd5074b6ff030
:1003d0007f4141f2ff7219615a6170470014004079
:1003e000001c0040060130000010004000080040e2
:1003f000070101000701020009b900207047002b26
:10040000fbd010b40c4c6060a160e2606278042004
:10041000d2b26270214620704a78d007fcd54a7863
:10042000520703d500205df8044b7047ca681a6074
:1004300001205df8044b704700200041704700bf69
:10044000064ad3684ff6ff010b4043f0bf6343f405
:100450000033d360bff35f8f62b6704700ed00e0fa
:10046000024b40f204521a80704700bf0040004126
:100470000c4a30b4091a0025031f0c1d00f5fe704c
:100480001580e21853f8041f11608342f9d1064a1f
:10049000138803f0300313b94af203539380012009
:1004a00030bc7047f84500200040004110b4064bb6
:1004b000064c01464af20152002020800120596179
:1004c0009a805df8044b704700400041f8450020d9
:1004d000024b588ac04300f00100704700400041c1
:1004e000024b4af2125258619a8070470040004114
:1004f000024b4af217529a80704700bf00400041f9
:10050000704700bf80b24ff0804340ea014119605c
:10051000704700bf094b10b44ff400610122002462
:1005200033201960196183f8442083f8452083f84b
:100530004b4083f832005df8044b70470080004167
:100540000a4b0b4a1a604ff440314ff622029a814f
:100550001a465960d369002bfcd11368034943f054
:1005600002031360cb69002bfcd1704700300040c0
:1005700004011040024b187ec0f34000704700bfda
:1005800000300040034a137edb07fcd580b2906246
:10059000704700bf00300040024b187ec0f380005f
:1005a000704700bf00300040014b986a704700bfa1
:1005b00000300040044b0548002204211a609a6074
:1005c00058601960704700bf10e000e0ff1ab700e4
:1005d000054b1a68002122f001021a6099601a681e
:1005e00042f001021a60704710e000e0024b186808
:1005f000c0f30040704700bf10e000e008b5fff70f
:100600002ffffff787fffff7affd78b1fff79cfee5
:10061000fff798fefff712fffff792fffff7caff01
:10062000fff76effbde80840fff70abffff780fd48
:10063000ece700bf08b50020fff7e0fffff7aefdd5
:04064000012008bdd0
:00000001FF
